{
  "abi": [
    {
      "inputs": [
        {
          "internalType": "string",
          "name": "_name",
          "type": "string"
        }
      ],
      "stateMutability": "nonpayable",
      "type": "constructor"
    },
    {
      "inputs": [],
      "name": "getValue",
      "outputs": [
        {
          "internalType": "uint256",
          "name": "",
          "type": "uint256"
        }
      ],
      "stateMutability": "view",
      "type": "function"
    },
    {
      "inputs": [],
      "name": "incrementValue",
      "outputs": [],
      "stateMutability": "nonpayable",
      "type": "function"
    },
    {
      "inputs": [],
      "name": "name",
      "outputs": [
        {
          "internalType": "string",
          "name": "",
          "type": "string"
        }
      ],
      "stateMutability": "view",
      "type": "function"
    }
  ],
  "bytecode": {
    "object": "0x608060405234801561001057600080fd5b5060405161048b38038061048b83398101604081905261002f9161005d565b600061003b82826101b1565b50506000600155610270565b634e487b7160e01b600052604160045260246000fd5b6000602080838503121561007057600080fd5b82516001600160401b038082111561008757600080fd5b818501915085601f83011261009b57600080fd5b8151818111156100ad576100ad610047565b604051601f8201601f19908116603f011681019083821181831017156100d5576100d5610047565b8160405282815288868487010111156100ed57600080fd5b600093505b8284101561010f57848401860151818501870152928501926100f2565b600086848301015280965050505050505092915050565b600181811c9082168061013a57607f821691505b60208210810361015a57634e487b7160e01b600052602260045260246000fd5b50919050565b601f8211156101ac576000816000526020600020601f850160051c810160208610156101895750805b601f850160051c820191505b818110156101a857828155600101610195565b5050505b505050565b81516001600160401b038111156101ca576101ca610047565b6101de816101d88454610126565b84610160565b602080601f83116001811461021357600084156101fb5750858301515b600019600386901b1c1916600185901b1785556101a8565b600085815260208120601f198616915b8281101561024257888601518255948401946001909101908401610223565b50858210156102605787850151600019600388901b60f8161c191681555b5050505050600190811b01905550565b61020c8061027f6000396000f3fe608060405234801561001057600080fd5b50600436106100415760003560e01c806306fdde031461004657806320965255146100645780633bfd7fd314610075575b600080fd5b61004e61007f565b60405161005b9190610126565b60405180910390f35b60015460405190815260200161005b565b61007d61010d565b005b6000805461008c90610175565b80601f01602080910402602001604051908101604052809291908181526020018280546100b890610175565b80156101055780601f106100da57610100808354040283529160200191610105565b820191906000526020600020905b8154815290600101906020018083116100e857829003601f168201915b505050505081565b600180600082825461011f91906101af565b9091555050565b60006020808352835180602085015260005b8181101561015457858101830151858201604001528201610138565b506000604082860101526040601f19601f8301168501019250505092915050565b600181811c9082168061018957607f821691505b6020821081036101a957634e487b7160e01b600052602260045260246000fd5b50919050565b808201808211156101d057634e487b7160e01b600052601160045260246000fd5b9291505056fea26469706673582212200291dfc3b9c1fcc14b08051ada37103328454de622ee8b56f046a41e31627c0964736f6c63430008170033",
    "linkReferences": {}
  },
  "methodIdentifiers": {
    "getValue()": "20965255",
    "incrementValue()": "3bfd7fd3",
    "name()": "06fdde03"
  },
  "id": 20
}